{
  "contractName": "EtherPortal",
  "abi": [
    {
      "inputs": [
        {
          "internalType": "address payable[]",
          "name": "_recipients",
          "type": "address[]"
        },
        {
          "internalType": "uint256[]",
          "name": "_amounts",
          "type": "uint256[]"
        }
      ],
      "name": "massTeleport",
      "outputs": [
        {
          "internalType": "bool",
          "name": "",
          "type": "bool"
        }
      ],
      "stateMutability": "payable",
      "type": "function",
      "payable": true
    },
    {
      "inputs": [],
      "name": "voidEther",
      "outputs": [],
      "stateMutability": "payable",
      "type": "function",
      "payable": true
    }
  ],
  "bytecode": "0x608060405234801561001057600080fd5b50610567806100206000396000f3fe6080604052600436106100295760003560e01c8063167a84171461002e578063624854da14610190575b600080fd5b6101786004803603604081101561004457600080fd5b810190808035906020019064010000000081111561006157600080fd5b82018360208201111561007357600080fd5b8035906020019184602083028401116401000000008311171561009557600080fd5b919080806020026020016040519081016040528093929190818152602001838360200280828437600081840152601f19601f820116905080830192505050505050509192919290803590602001906401000000008111156100f557600080fd5b82018360208201111561010757600080fd5b8035906020019184602083028401116401000000008311171561012957600080fd5b919080806020026020016040519081016040528093929190818152602001838360200280828437600081840152601f19601f82011690508083019250505050505050919291929050505061019a565b60405180821515815260200191505060405180910390f35b610198610380565b005b60008083519050825181146101fa576040517f08c379a000000000000000000000000000000000000000000000000000000000815260040180806020018281038252602481526020018061050e6024913960400191505060405180910390fd5b600060405161020890610432565b604051809103906000f080158015610224573d6000803e3d6000fd5b50905060005b828110156102e7578173ffffffffffffffffffffffffffffffffffffffff1663ab835e8d86838151811061025a57fe5b602002602001015188848151811061026e57fe5b60200260200101516040518363ffffffff1660e01b8152600401808273ffffffffffffffffffffffffffffffffffffffff1681526020019150506000604051808303818588803b1580156102c157600080fd5b505af11580156102d5573d6000803e3d6000fd5b5050505050808060010191505061022a565b506000471115610374578073ffffffffffffffffffffffffffffffffffffffff1663ab835e8d47336040518363ffffffff1660e01b8152600401808273ffffffffffffffffffffffffffffffffffffffff1681526020019150506000604051808303818588803b15801561035a57600080fd5b505af115801561036e573d6000803e3d6000fd5b50505050505b60019250505092915050565b600060405161038e90610432565b604051809103906000f0801580156103aa573d6000803e3d6000fd5b5090508073ffffffffffffffffffffffffffffffffffffffff1663ab835e8d34836040518363ffffffff1660e01b8152600401808273ffffffffffffffffffffffffffffffffffffffff1681526020019150506000604051808303818588803b15801561041657600080fd5b505af115801561042a573d6000803e3d6000fd5b505050505050565b60cf8061043f8339019056fe6080604052348015600f57600080fd5b5060b18061001e6000396000f3fe608060405260043610601c5760003560e01c8063ab835e8d146021575b600080fd5b606060048036036020811015603557600080fd5b81019080803573ffffffffffffffffffffffffffffffffffffffff1690602001909291905050506062565b005b8073ffffffffffffffffffffffffffffffffffffffff16fffea2646970667358221220c1b70d9214a20c15fc279561fc84501b9926b570cef7c677d575703bc1eb6bc364736f6c63430007060033496e636f6e73697374656e7420706172616d65746572206172726179206c656e67746873a264697066735822122072eb5fc63533e2f36471694719a804c5df37c558c70e2bcf54ef469728a9229864736f6c63430007060033",
  "immutableReferences": {},
  "source": "// SPDX-License-Identifier: MIT\r\npragma solidity >=0.4.22 <0.9.0;\r\n\r\n\r\ncontract EtherPortal {\r\n\r\n    //event PaymentsMade(address payable[] recipients, uint[] amounts);\r\n\r\n    // batch push payment method that is immune to reentrancy, unpredictable gas costs, and/or revert() triggering from recipient's fallback()\r\n    // see https://fravoll.github.io/solidity-patterns/pull_over_push.html for motivation\r\n    // due to selfdestruct opcode implementation, recipients cannot react to ether sent for better or worse\r\n\r\n    // gas cost is cheaper than direct transaction from EOA (21k gas) when making >10 payments\r\n\r\n    // solc 0.7.6\r\n    // 1486350 gas cost to batch pay 100 existing account addresses, ~ 30% cheaper over direct EOA transfer, \r\n    // gas cost ~= 73k + 14k*(total number of recipients) + 25k*(number of recipients without pre-existing state objects)\r\n\r\n    // solc 0.8.4\r\n    // 1607506 gas cost to batch pay 100 existing account addresses \r\n    // gas cost ~= 91k + 15k*(total number of recipients) + 25k*(number of recipients without pre-existing state objects) \r\n\r\n    // solc 0.6.12\r\n    // 1486327 gas cost to batch pay 100 existing account addresses \r\n\r\n    // ropsten solc 0.8.4\r\n    // 225,139 gas cost for 10 payments\r\n\r\n    \r\n    // msg.value must be >= sum(_ammounts) or transaction will revert\r\n    function massTeleport(address payable[] memory _recipients, uint[] memory _amounts) public payable returns (bool) {\r\n      \r\n      uint numRecipients = _recipients.length;\r\n      require(numRecipients == _amounts.length, 'Inconsistent parameter array lengths');\r\n\r\n      // open payment portal, note portal only closes at the end of transaction, no matter how many times selfdestruct() is invoked\r\n      WormHole unstablePortal = new WormHole(); \r\n\r\n      for (uint i=0; i < numRecipients; i++) {\r\n        unstablePortal.teleportEtherTo{value: _amounts[i]}(_recipients[i]); // pay recipient by invoking selfdestruct() within the portal\r\n      }\r\n\r\n      if (address(this).balance > 0) {\r\n        unstablePortal.teleportEtherTo{value: address(this).balance}(payable(msg.sender)); // return any unused ether to sender\r\n      }\r\n\r\n      return true;\r\n    }\r\n\r\n    /*\r\n    function batchPayWithEvent(address payable[] memory _recipients, uint[] memory _amounts) public payable returns (bool) { \r\n\r\n      if ( batchPay(_recipients, _amounts) ) {\r\n        emit PaymentsMade(_recipients, _amounts);\r\n        return true;\r\n      }\r\n\r\n      return false;\r\n\r\n    }\r\n    */\r\n\r\n\r\n    // function will permanently erase msg.value off the blockchain\r\n    // ether erased in this manner cannot be recovered, even if an entity could effortlessly conjure up private keys to any and all addresses\r\n    // of dubious utility, but perhaps of academic interest for questions such as \"what is the total amount of ether on the blockchain\" \r\n    // 77k gas on ropsten to void 0.1 eth\r\n    function voidEther() public payable {\r\n\r\n      WormHole unstablePortal = new WormHole();\r\n      unstablePortal.teleportEtherTo{value: msg.value}(payable(address(unstablePortal)));\r\n\r\n    }\r\n}\r\n\r\n\r\n\r\n\r\ncontract WormHole {\r\n\r\n  function teleportEtherTo(address payable _recipient) public payable {\r\n    selfdestruct(_recipient);\r\n  }\r\n}\r\n\r\n\r\n",
  "sourcePath": "C:/Users/tliny/EtherPortal/contracts/EtherPortal.sol",
  "compiler": {
    "name": "solc",
    "version": "0.7.6+commit.7338295f.Emscripten.clang"
  },
  "schemaVersion": "3.3.4",
  "updatedAt": "2021-06-05T20:09:12.254Z",
  "networkType": "ethereum",
  "devdoc": {
    "kind": "dev",
    "methods": {},
    "version": 1
  },
  "userdoc": {
    "kind": "user",
    "methods": {},
    "version": 1
  }
}